:100000000C9462000C948A000C948A000C948A0070
:100010000C948A000C948A000C948A000C948A0038
:100020000C948A000C948A000C948A000C948A0028
:100030000C948A000C948A000C948A000C948A0018
:100040000C94B9030C948A000C948A000C948A00D6
:100050000C948A000C948A000C948A000C948A00F8
:100060000C948A000C948A000000000024002700F1
:100070002A0000000000250028002B0000000000DE
:1000800023002600290004040404040404040202DA
:100090000202020203030303030301020408102007
:1000A0004080010204081020010204081020000012
:1000B0000008000201000003040700000000000027
:1000C0000000720511241FBECFEFD8E0DEBFCDBF08
:1000D00011E0A0E0B1E0EEEEFBE002C005900D9271
:1000E000AC36B107D9F721E0ACE6B1E001C01D9212
:1000F000A739B207E1F710E0C2E6D0E004C02197CB
:10010000FE010E94EF05C136D107C9F70E94030422
:100110000C94F5050C940000AF92BF92CF92DF9241
:10012000EF92FF920F931F93CF93DF936C017B01AC
:100130008B01040F151FEB015E01AE18BF08C0173D
:10014000D10759F06991D601ED91FC910190F081B0
:10015000E02DC6010995892B79F7C501DF91CF9173
:100160001F910F91FF90EF90DF90CF90BF90AF90D5
:100170000895833081F028F4813099F08230A9F01D
:1001800008958730A9F08830C9F08430B1F48091A7
:1001900080008F7D03C0809180008F7780938000E6
:1001A000089584B58F7784BD089584B58F7DFBCF86
:1001B0008091B0008F778093B00008958091B00057
:1001C0008F7DF9CFCF93DF93282F30E0F901E255EF
:1001D000FF4F8491F901E656FF4FD491F901EA5798
:1001E000FF4FC491CC23A1F081110E94B900EC2FE4
:1001F000F0E0EE0FFF1FE458FF4FA591B491EC9192
:10020000ED2381E090E009F480E0DF91CF91089543
:1002100080E090E0FACF1F93CF93DF93282F30E058
:10022000F901E255FF4F8491F901E656FF4FD49151
:10023000F901EA57FF4FC491CC23A9F0162F811181
:100240000E94B900EC2FF0E0EE0FFF1FEE58FF4FB9
:10025000A591B4918FB7F894EC91111108C0D09585
:10026000DE23DC938FBFDF91CF911F910895DE2BAA
:10027000F8CFCF93DF9390E0FC01E656FF4F249137
:100280008A579F4FFC0184918823C9F090E0880F22
:10029000991FFC01E859FF4FA591B491FC01EE585C
:1002A000FF4FC591D49161110DC09FB7F8948C9107
:1002B000209582238C938881282328839FBFDF91F8
:1002C000CF910895623051F49FB7F8943C91822FFA
:1002D000809583238C93E8812E2BEFCF8FB7F894F2
:1002E000EC912E2B2C938FBFEACF3FB7F8948091DF
:1002F000710190917201A0917301B091740126B5C2
:10030000A89B05C02F3F19F00196A11DB11D3FBF4D
:10031000BA2FA92F982F8827BC01CD01620F711D1C
:10032000811D911D42E0660F771F881F991F4A9516
:10033000D1F708958F929F92AF92BF92CF92DF92A2
:10034000EF92FF926B017C010E9475014B015C01F1
:10035000C114D104E104F104B9F00E9475016819D7
:1003600079098A099B09683E73408105910580F3EC
:1003700021E0C21AD108E108F10888EE880E83E076
:10038000981EA11CB11CE4CFFF90EF90DF90CF909E
:10039000BF90AF909F908F900895089590E080E077
:1003A000089581309105D1F01CF4892B39F008951E
:1003B00082309105C9F0039729F1089561E08BE03F
:1003C0000E940B0160E08AE00E940B0161E089E07D
:1003D0000E940B0160E088E00C940B0160E08BE070
:1003E0000E940B0161E0EFCF60E08BE00E940B0107
:1003F00061E08AE00E940B0160E089E00E940B014D
:1004000061E0E9CF61E08BE00E940B0160E0F1CF99
:100410008F929F92AF92BF920F931F93CF93DF93D0
:10042000CDB7DEB7A1970FB6F894DEBF0FBECDBF34
:1004300019A2423008F44AE08E010F5D1F4F842E4E
:10044000912CB12CA12CA50194010E94AF05E62F9F
:10045000B901CA01EA3044F5E05DD801EE938D019F
:10046000232B242B252B79F790E080E0109769F05F
:10047000FD0101900020E9F73197AF014A1B5B0BAA
:10048000BD018FE791E00E948C00A1960FB6F89411
:10049000DEBF0FBECDBFDF91CF911F910F91BF90F7
:1004A000AF909F908F900895E95CD7CFFC010190A9
:1004B0000020E9F73197AF01481B590BBC018FE7CA
:1004C00091E00C948C00CF93DF93EC0160E08E817F
:1004D0000E940B0161E08E810E940B0160E08E8121
:1004E0000E940B018BE891E00197F1F7DF91CF912A
:1004F0000895CF92DF92EF92FF920F931F93CF93C5
:10050000DF936C017C0187E0E80EF11CD0E0C0E0D5
:10051000062F10E0B8010C2E02C0759567950A945D
:10052000E2F76170F70181917F010E940B01219632
:10053000C430D10579F7C601DF91CF911F910F919A
:10054000FF90EF90DF90CF900C946302CF92DF92F8
:10055000EF92FF920F931F93CF93DF93EC01F62E50
:10056000642F8C810E940B018D818F3F19F060E018
:100570000E940B010F2D10E08F8584FF25C06E01B6
:1005800087E0C80ED11CF12CE12CB8010E2C02C062
:10059000759567950A94E2F76170F60181916F0194
:1005A0000E940B01FFEFEF1AFF0A88E0E816F10442
:1005B00061F7CE01DF91CF911F910F91FF90EF90E6
:1005C000DF90CF900C946302B80184E07595679535
:1005D0008A95E1F7CE010E9479026F2DCE01DF915D
:1005E000CF911F910F91FF90EF90DF90CF900C94DF
:1005F000790240E0682F8FE791E00C94A602CF9338
:10060000DF93823029F490918E01986090938E014F
:10061000809392011092930180E48093940180E191
:100620008093950180E58093960161E0809183013C
:100630000E943901809184018F3F19F061E00E948E
:10064000390161E0809185010E943901CFE7D1E055
:100650009E012F57314080918E0184FD0BC084E0B4
:1006600090E021962817390744F461E08E810E94BA
:100670003901EECF88E090E0F4CF8BE39DE0019765
:10068000F1F760E0809183010E940B0160E08091AE
:1006900085010E940B01809184018F3F19F060E079
:1006A0000E940B0180918E0184FD39C063E08FE7C9
:1006B00091E00E947902CBE4D6E4CE010197F1F7F4
:1006C00063E08FE791E00E9479022197F1F763E000
:1006D0008FE791E00E94790283E592E00197F1F7BC
:1006E00062E08FE791E00E94790280918E01806242
:1006F0000E94F90284E080938F018CE00E94F9024D
:1007000081E00E94F9028BE39FE10197F1F782E01B
:100710008093900186E0DF91CF910C94F902806282
:100720000E94F9028BE496E40197F1F780918E0123
:1007300080620E94F90283E592E00197F1F78091CF
:100740008E0180620E94F902D0CF909192018917A8
:1007500010F08FEF890FE82FF0E0E158FE4F848909
:1007600080680C94F90241E00E94A60281E090E0CA
:1007700008951F920F920FB60F9211242F933F935B
:100780008F939F93AF93BF9380916D0190916E0172
:10079000A0916F01B091700130916C0123E0230FA3
:1007A0002D3758F50196A11DB11D20936C01809342
:1007B0006D0190936E01A0936F01B09370018091D1
:1007C000710190917201A0917301B0917401019631
:1007D000A11DB11D8093710190937201A0937301CB
:1007E000B0937401BF91AF919F918F913F912F91E1
:1007F0000F900FBE0F901F90189526E8230F0296BA
:10080000A11DB11DD2CF789484B5826084BD84B51A
:10081000816084BD85B5826085BD85B5816085BDFB
:1008200080916E00816080936E00109281008091B3
:10083000810082608093810080918100816080933B
:100840008100809180008160809380008091B10060
:1008500084608093B1008091B00081608093B0008B
:1008600080917A00846080937A0080917A0082601F
:1008700080937A0080917A00816080937A008091E1
:100880007A00806880937A001092C10060E08EE068
:100890000E94390162E08FE00E94390162E080E14C
:1008A0000E94390162E081E10E94390161E08BE040
:1008B0000E94390161E08AE00E94390161E089E02B
:1008C0000E94390161E088E00E94390182E00E94C3
:1008D000FF0280E00E94A5038CE091E00E94560296
:1008E00081E00E94A5038CE191E00E94560260ED38
:1008F00077E080E090E00E949A0181E00E94F90296
:100900008BE39FE10197F1F788248A9483E0982E86
:10091000A12CB12C90E0292E90E0392E01E010E0BE
:1009200022E0E22EF12C33E0C32ED12C80E4809320
:100930007C0080917A00806480937A0080917A00B4
:1009400086FDFCCF80917800C0917900DC2FC82F04
:10095000D0937E01C0937D019E01ACE9BFEF0E9460
:10096000E005A50194010E9490052C593F4F4F4F7F
:100970005F4F30937C0120937B0124E630E0DE0161
:100980000E94E805A50194010E94900530937A0128
:100990002093790180E00E94A5038AE291E00E9401
:1009A00056024090790150907A01052C000C66089F
:1009B00077084AE0C301B20177FE0EC041E06DE264
:1009C0008FE791E00E94A60266277727CB01641982
:1009D0007509860997094AE00E94080285E391E0BB
:1009E0000E9456028FE00E94E200892B21F41093AE
:1009F00078010093770180E10E94E200892B21F4C5
:100A0000109278011092770181E10E94E200892B17
:100A100021F4F0927801E092770181E00E94A50331
:100A20008091770190917801892B21F489E391E0FD
:100A30000E9456028091770190917801019721F4EC
:100A40008AE491E00E9456028091770190917801AA
:100A5000029721F48BE591E00E9456028091790182
:100A600090917A011816190644F5809177019091BA
:100A700078018130910541F5809175019091760161
:100A80000196843091052CF4909376018093750142
:100A900004C01092760110927501809175019091B9
:100AA00076010E94D10160917B0170917C01072E3B
:100AB000000C880B990B0E949A012114310409F44F
:100AC00035CF0E94000032CF029769F780917501FF
:100AD00090917601019797FFD7CFD0927601C0927F
:100AE0007501DBCFEFE7F1E01382128284E091E041
:100AF0009183808382E084838FEF858383E0868384
:100B000084E0878385E0808786E0818787E082872D
:100B10001386148615861686178681E00C94FF02CC
:100B2000052E97FB1EF400940E94A70557FD07D0E1
:100B30000E94AF0507FC03D04EF40C94A705509516
:100B40004095309521953F4F4F4F5F4F08959095B9
:100B50008095709561957F4F8F4F9F4F0895A1E2CB
:100B60001A2EAA1BBB1BFD010DC0AA1FBB1FEE1F27
:100B7000FF1FA217B307E407F50720F0A21BB30B72
:100B8000E40BF50B661F771F881F991F1A9469F7EE
:100B900060957095809590959B01AC01BD01CF014A
:100BA0000895A29FB001B39FC001A39F700D811D46
:100BB0001124911DB29F700D811D1124911D089566
:100BC0000E94D105332312F48A1B9B0B0C94EA0577
:100BD0000E94D105B7FF0895821B930B0895EE0F75
:0E0BE000FF1F0590F491E02D0994F894FFCFCB
:100BEE0000000000B3038C00CE01CD012057454C10
:100BFE00434F4D4520546F206F75720073746570AE
:100C0E00706572206D6F746F7200202020537065B6
:100C1E0065643A200025202000202020202020532B
:100C2E00746F702020202020200020202020436C74
:100C3E006F636B77697365202020002020416E74EE
:0C0C4E0069636C6F636B7769736520004D
:00000001FF
